{
  "_format": "hh-sol-artifact-1",
  "contractName": "TradesmenNFT",
  "sourceName": "contracts/TradesmenNFT.sol",
  "abi": [
    {
      "inputs": [],
      "stateMutability": "payable",
      "type": "constructor"
    },
    {
      "anonymous": false,
      "inputs": [
        {
          "indexed": true,
          "internalType": "address",
          "name": "owner",
          "type": "address"
        },
        {
          "indexed": true,
          "internalType": "address",
          "name": "approved",
          "type": "address"
        },
        {
          "indexed": true,
          "internalType": "uint256",
          "name": "tokenId",
          "type": "uint256"
        }
      ],
      "name": "Approval",
      "type": "event"
    },
    {
      "anonymous": false,
      "inputs": [
        {
          "indexed": true,
          "internalType": "address",
          "name": "owner",
          "type": "address"
        },
        {
          "indexed": true,
          "internalType": "address",
          "name": "operator",
          "type": "address"
        },
        {
          "indexed": false,
          "internalType": "bool",
          "name": "approved",
          "type": "bool"
        }
      ],
      "name": "ApprovalForAll",
      "type": "event"
    },
    {
      "anonymous": false,
      "inputs": [
        {
          "indexed": true,
          "internalType": "address",
          "name": "previousOwner",
          "type": "address"
        },
        {
          "indexed": true,
          "internalType": "address",
          "name": "newOwner",
          "type": "address"
        }
      ],
      "name": "OwnershipTransferred",
      "type": "event"
    },
    {
      "anonymous": false,
      "inputs": [
        {
          "indexed": true,
          "internalType": "address",
          "name": "from",
          "type": "address"
        },
        {
          "indexed": true,
          "internalType": "address",
          "name": "to",
          "type": "address"
        },
        {
          "indexed": true,
          "internalType": "uint256",
          "name": "tokenId",
          "type": "uint256"
        }
      ],
      "name": "Transfer",
      "type": "event"
    },
    {
      "inputs": [
        {
          "internalType": "address",
          "name": "to",
          "type": "address"
        },
        {
          "internalType": "uint256",
          "name": "tokenId",
          "type": "uint256"
        }
      ],
      "name": "approve",
      "outputs": [],
      "stateMutability": "nonpayable",
      "type": "function"
    },
    {
      "inputs": [
        {
          "internalType": "address",
          "name": "owner",
          "type": "address"
        }
      ],
      "name": "balanceOf",
      "outputs": [
        {
          "internalType": "uint256",
          "name": "",
          "type": "uint256"
        }
      ],
      "stateMutability": "view",
      "type": "function"
    },
    {
      "inputs": [],
      "name": "baseURI",
      "outputs": [
        {
          "internalType": "string",
          "name": "",
          "type": "string"
        }
      ],
      "stateMutability": "view",
      "type": "function"
    },
    {
      "inputs": [],
      "name": "checkBalance",
      "outputs": [
        {
          "internalType": "uint256",
          "name": "",
          "type": "uint256"
        }
      ],
      "stateMutability": "view",
      "type": "function"
    },
    {
      "inputs": [
        {
          "internalType": "uint256",
          "name": "tokenId",
          "type": "uint256"
        }
      ],
      "name": "getApproved",
      "outputs": [
        {
          "internalType": "address",
          "name": "",
          "type": "address"
        }
      ],
      "stateMutability": "view",
      "type": "function"
    },
    {
      "inputs": [
        {
          "internalType": "address",
          "name": "owner",
          "type": "address"
        },
        {
          "internalType": "address",
          "name": "operator",
          "type": "address"
        }
      ],
      "name": "isApprovedForAll",
      "outputs": [
        {
          "internalType": "bool",
          "name": "",
          "type": "bool"
        }
      ],
      "stateMutability": "view",
      "type": "function"
    },
    {
      "inputs": [],
      "name": "isPiblicMintEnabled",
      "outputs": [
        {
          "internalType": "bool",
          "name": "",
          "type": "bool"
        }
      ],
      "stateMutability": "view",
      "type": "function"
    },
    {
      "inputs": [],
      "name": "maxMintAmount",
      "outputs": [
        {
          "internalType": "uint256",
          "name": "",
          "type": "uint256"
        }
      ],
      "stateMutability": "view",
      "type": "function"
    },
    {
      "inputs": [],
      "name": "maxSupply",
      "outputs": [
        {
          "internalType": "uint256",
          "name": "",
          "type": "uint256"
        }
      ],
      "stateMutability": "view",
      "type": "function"
    },
    {
      "inputs": [
        {
          "internalType": "address",
          "name": "_to",
          "type": "address"
        },
        {
          "internalType": "uint256",
          "name": "_mintAmount",
          "type": "uint256"
        }
      ],
      "name": "mint",
      "outputs": [],
      "stateMutability": "payable",
      "type": "function"
    },
    {
      "inputs": [],
      "name": "mintPrice",
      "outputs": [
        {
          "internalType": "uint256",
          "name": "",
          "type": "uint256"
        }
      ],
      "stateMutability": "view",
      "type": "function"
    },
    {
      "inputs": [],
      "name": "name",
      "outputs": [
        {
          "internalType": "string",
          "name": "",
          "type": "string"
        }
      ],
      "stateMutability": "view",
      "type": "function"
    },
    {
      "inputs": [],
      "name": "owner",
      "outputs": [
        {
          "internalType": "address",
          "name": "",
          "type": "address"
        }
      ],
      "stateMutability": "view",
      "type": "function"
    },
    {
      "inputs": [
        {
          "internalType": "uint256",
          "name": "tokenId",
          "type": "uint256"
        }
      ],
      "name": "ownerOf",
      "outputs": [
        {
          "internalType": "address",
          "name": "",
          "type": "address"
        }
      ],
      "stateMutability": "view",
      "type": "function"
    },
    {
      "inputs": [],
      "name": "renounceOwnership",
      "outputs": [],
      "stateMutability": "nonpayable",
      "type": "function"
    },
    {
      "inputs": [
        {
          "internalType": "address",
          "name": "from",
          "type": "address"
        },
        {
          "internalType": "address",
          "name": "to",
          "type": "address"
        },
        {
          "internalType": "uint256",
          "name": "tokenId",
          "type": "uint256"
        }
      ],
      "name": "safeTransferFrom",
      "outputs": [],
      "stateMutability": "nonpayable",
      "type": "function"
    },
    {
      "inputs": [
        {
          "internalType": "address",
          "name": "from",
          "type": "address"
        },
        {
          "internalType": "address",
          "name": "to",
          "type": "address"
        },
        {
          "internalType": "uint256",
          "name": "tokenId",
          "type": "uint256"
        },
        {
          "internalType": "bytes",
          "name": "_data",
          "type": "bytes"
        }
      ],
      "name": "safeTransferFrom",
      "outputs": [],
      "stateMutability": "nonpayable",
      "type": "function"
    },
    {
      "inputs": [
        {
          "internalType": "address",
          "name": "operator",
          "type": "address"
        },
        {
          "internalType": "bool",
          "name": "approved",
          "type": "bool"
        }
      ],
      "name": "setApprovalForAll",
      "outputs": [],
      "stateMutability": "nonpayable",
      "type": "function"
    },
    {
      "inputs": [
        {
          "internalType": "string",
          "name": "_newBaseURI",
          "type": "string"
        }
      ],
      "name": "setBaseURI",
      "outputs": [],
      "stateMutability": "nonpayable",
      "type": "function"
    },
    {
      "inputs": [
        {
          "internalType": "uint256",
          "name": "_newMintPrice",
          "type": "uint256"
        }
      ],
      "name": "setMintPrice",
      "outputs": [],
      "stateMutability": "nonpayable",
      "type": "function"
    },
    {
      "inputs": [
        {
          "internalType": "bool",
          "name": "_state",
          "type": "bool"
        }
      ],
      "name": "setPublicMint",
      "outputs": [],
      "stateMutability": "nonpayable",
      "type": "function"
    },
    {
      "inputs": [
        {
          "internalType": "uint256",
          "name": "_newmaxMintAmount",
          "type": "uint256"
        }
      ],
      "name": "setmaxMintAmount",
      "outputs": [],
      "stateMutability": "nonpayable",
      "type": "function"
    },
    {
      "inputs": [
        {
          "internalType": "bytes4",
          "name": "interfaceId",
          "type": "bytes4"
        }
      ],
      "name": "supportsInterface",
      "outputs": [
        {
          "internalType": "bool",
          "name": "",
          "type": "bool"
        }
      ],
      "stateMutability": "view",
      "type": "function"
    },
    {
      "inputs": [],
      "name": "symbol",
      "outputs": [
        {
          "internalType": "string",
          "name": "",
          "type": "string"
        }
      ],
      "stateMutability": "view",
      "type": "function"
    },
    {
      "inputs": [
        {
          "internalType": "uint256",
          "name": "_tokenId",
          "type": "uint256"
        }
      ],
      "name": "tokenURI",
      "outputs": [
        {
          "internalType": "string",
          "name": "",
          "type": "string"
        }
      ],
      "stateMutability": "view",
      "type": "function"
    },
    {
      "inputs": [],
      "name": "totalSupply",
      "outputs": [
        {
          "internalType": "uint256",
          "name": "",
          "type": "uint256"
        }
      ],
      "stateMutability": "view",
      "type": "function"
    },
    {
      "inputs": [
        {
          "internalType": "address",
          "name": "from",
          "type": "address"
        },
        {
          "internalType": "address",
          "name": "to",
          "type": "address"
        },
        {
          "internalType": "uint256",
          "name": "tokenId",
          "type": "uint256"
        }
      ],
      "name": "transferFrom",
      "outputs": [],
      "stateMutability": "nonpayable",
      "type": "function"
    },
    {
      "inputs": [
        {
          "internalType": "address",
          "name": "newOwner",
          "type": "address"
        }
      ],
      "name": "transferOwnership",
      "outputs": [],
      "stateMutability": "nonpayable",
      "type": "function"
    },
    {
      "inputs": [],
      "name": "withdrawAll",
      "outputs": [],
      "stateMutability": "payable",
      "type": "function"
    },
    {
      "inputs": [
        {
          "internalType": "uint256",
          "name": "weiAmount",
          "type": "uint256"
        }
      ],
      "name": "withdrawAmount",
      "outputs": [],
      "stateMutability": "payable",
      "type": "function"
    }
  ],
  "bytecode": "0x60806040526040518060400160405280600c81526020017f5472616465736d656e4e465400000000000000000000000000000000000000008152506040518060400160405280600381526020017f544d4e0000000000000000000000000000000000000000000000000000000000815250816000908051906020019062000088929190620001cf565b508060019080519060200190620000a1929190620001cf565b505050620000c4620000b86200010160201b60201c565b6200010960201b60201c565b662386f26fc100006008819055506000600981905550612710600a81905550600954600a54620000f591906200027f565b600b8190555062000358565b600033905090565b6000600660009054906101000a900473ffffffffffffffffffffffffffffffffffffffff16905081600660006101000a81548173ffffffffffffffffffffffffffffffffffffffff021916908373ffffffffffffffffffffffffffffffffffffffff1602179055508173ffffffffffffffffffffffffffffffffffffffff168173ffffffffffffffffffffffffffffffffffffffff167f8be0079c531659141344cd1fd0a4f28419497f9722a3daafe3b4186f6b6457e060405160405180910390a35050565b828054620001dd90620002c4565b90600052602060002090601f0160209004810192826200020157600085556200024d565b82601f106200021c57805160ff19168380011785556200024d565b828001600101855582156200024d579182015b828111156200024c5782518255916020019190600101906200022f565b5b5090506200025c919062000260565b5090565b5b808211156200027b57600081600090555060010162000261565b5090565b60006200028c82620002ba565b91506200029983620002ba565b925082821015620002af57620002ae620002fa565b5b828203905092915050565b6000819050919050565b60006002820490506001821680620002dd57607f821691505b60208210811415620002f457620002f362000329565b5b50919050565b7f4e487b7100000000000000000000000000000000000000000000000000000000600052601160045260246000fd5b7f4e487b7100000000000000000000000000000000000000000000000000000000600052602260045260246000fd5b613b7c80620003686000396000f3fe6080604052600436106101cd5760003560e01c806370a08231116100f7578063b88d4fde11610095578063e985e9c511610064578063e985e9c514610627578063f2fde38b14610664578063f3d8c33e1461068d578063f4a0a528146106b8576101cd565b8063b88d4fde1461056b578063c71daccb14610594578063c87b56dd146105bf578063d5abeb01146105fc576101cd565b8063853828b6116100d1578063853828b6146104e25780638da5cb5b146104ec57806395d89b4114610517578063a22cb46514610542576101cd565b806370a0823114610465578063715018a6146104a25780637f00c7a6146104b9576101cd565b8063239c70ae1161016f57806355f804b31161013e57806355f804b3146103a95780636352211e146103d25780636817c76c1461040f5780636c0360eb1461043a576101cd565b8063239c70ae1461031057806323b872dd1461033b57806340c10f191461036457806342842e0e14610380576101cd565b8063081812fc116101ab578063081812fc14610256578063095ea7b3146102935780630e2d56cf146102bc57806318160ddd146102e5576101cd565b806301ffc9a7146101d25780630562b9f71461020f57806306fdde031461022b575b600080fd5b3480156101de57600080fd5b506101f960048036038101906101f491906127f5565b6106e1565b6040516102069190612dbb565b60405180910390f35b61022960048036038101906102249190612888565b6107c3565b005b34801561023757600080fd5b506102406108cc565b60405161024d9190612dd6565b60405180910390f35b34801561026257600080fd5b5061027d60048036038101906102789190612888565b61095e565b60405161028a9190612d54565b60405180910390f35b34801561029f57600080fd5b506102ba60048036038101906102b59190612790565b6109e3565b005b3480156102c857600080fd5b506102e360048036038101906102de91906127cc565b610afb565b005b3480156102f157600080fd5b506102fa610b94565b60405161030791906130b8565b60405180910390f35b34801561031c57600080fd5b50610325610b9a565b60405161033291906130b8565b60405180910390f35b34801561034757600080fd5b50610362600480360381019061035d919061268a565b610ba0565b005b61037e60048036038101906103799190612790565b610c00565b005b34801561038c57600080fd5b506103a760048036038101906103a2919061268a565b610e08565b005b3480156103b557600080fd5b506103d060048036038101906103cb9190612847565b610e28565b005b3480156103de57600080fd5b506103f960048036038101906103f49190612888565b610ebe565b6040516104069190612d54565b60405180910390f35b34801561041b57600080fd5b50610424610f70565b60405161043191906130b8565b60405180910390f35b34801561044657600080fd5b5061044f610f76565b60405161045c9190612dd6565b60405180910390f35b34801561047157600080fd5b5061048c60048036038101906104879190612625565b611004565b60405161049991906130b8565b60405180910390f35b3480156104ae57600080fd5b506104b76110bc565b005b3480156104c557600080fd5b506104e060048036038101906104db9190612888565b611144565b005b6104ea6111ca565b005b3480156104f857600080fd5b5061050161128f565b60405161050e9190612d54565b60405180910390f35b34801561052357600080fd5b5061052c6112b9565b6040516105399190612dd6565b60405180910390f35b34801561054e57600080fd5b5061056960048036038101906105649190612754565b61134b565b005b34801561057757600080fd5b50610592600480360381019061058d91906126d9565b611361565b005b3480156105a057600080fd5b506105a96113c3565b6040516105b691906130b8565b60405180910390f35b3480156105cb57600080fd5b506105e660048036038101906105e19190612888565b611447565b6040516105f39190612dd6565b60405180910390f35b34801561060857600080fd5b506106116114ef565b60405161061e91906130b8565b60405180910390f35b34801561063357600080fd5b5061064e6004803603810190610649919061264e565b6114f5565b60405161065b9190612dbb565b60405180910390f35b34801561067057600080fd5b5061068b60048036038101906106869190612625565b611589565b005b34801561069957600080fd5b506106a2611681565b6040516106af9190612dbb565b60405180910390f35b3480156106c457600080fd5b506106df60048036038101906106da9190612888565b611694565b005b60007f80ac58cd000000000000000000000000000000000000000000000000000000007bffffffffffffffffffffffffffffffffffffffffffffffffffffffff1916827bffffffffffffffffffffffffffffffffffffffffffffffffffffffff191614806107ac57507f5b5e139f000000000000000000000000000000000000000000000000000000007bffffffffffffffffffffffffffffffffffffffffffffffffffffffff1916827bffffffffffffffffffffffffffffffffffffffffffffffffffffffff1916145b806107bc57506107bb8261171a565b5b9050919050565b6107cb611784565b73ffffffffffffffffffffffffffffffffffffffff166107e961128f565b73ffffffffffffffffffffffffffffffffffffffff161461083f576040517f08c379a000000000000000000000000000000000000000000000000000000000815260040161083690613018565b60405180910390fd5b47811115610882576040517f08c379a000000000000000000000000000000000000000000000000000000000815260040161087990612f78565b60405180910390fd5b3373ffffffffffffffffffffffffffffffffffffffff166108fc829081150290604051600060405180830381858888f193505050501580156108c8573d6000803e3d6000fd5b5050565b6060600080546108db9061337d565b80601f01602080910402602001604051908101604052809291908181526020018280546109079061337d565b80156109545780601f1061092957610100808354040283529160200191610954565b820191906000526020600020905b81548152906001019060200180831161093757829003601f168201915b5050505050905090565b60006109698261178c565b6109a8576040517f08c379a000000000000000000000000000000000000000000000000000000000815260040161099f90612ff8565b60405180910390fd5b6004600083815260200190815260200160002060009054906101000a900473ffffffffffffffffffffffffffffffffffffffff169050919050565b60006109ee82610ebe565b90508073ffffffffffffffffffffffffffffffffffffffff168373ffffffffffffffffffffffffffffffffffffffff161415610a5f576040517f08c379a0000000000000000000000000000000000000000000000000000000008152600401610a5690613038565b60405180910390fd5b8073ffffffffffffffffffffffffffffffffffffffff16610a7e611784565b73ffffffffffffffffffffffffffffffffffffffff161480610aad5750610aac81610aa7611784565b6114f5565b5b610aec576040517f08c379a0000000000000000000000000000000000000000000000000000000008152600401610ae390612f18565b60405180910390fd5b610af683836117f8565b505050565b610b03611784565b73ffffffffffffffffffffffffffffffffffffffff16610b2161128f565b73ffffffffffffffffffffffffffffffffffffffff1614610b77576040517f08c379a0000000000000000000000000000000000000000000000000000000008152600401610b6e90613018565b60405180910390fd5b80600c60006101000a81548160ff02191690831515021790555050565b60095481565b600b5481565b610bb1610bab611784565b826118b1565b610bf0576040517f08c379a0000000000000000000000000000000000000000000000000000000008152600401610be790613058565b60405180910390fd5b610bfb83838361198f565b505050565b600c60009054906101000a900460ff16610c4f576040517f08c379a0000000000000000000000000000000000000000000000000000000008152600401610c4690612ed8565b60405180910390fd5b60008111610c92576040517f08c379a0000000000000000000000000000000000000000000000000000000008152600401610c8990612f98565b60405180910390fd5b600b54811115610cd7576040517f08c379a0000000000000000000000000000000000000000000000000000000008152600401610cce90613098565b60405180910390fd5b600a5481600954610ce891906131b2565b1115610d29576040517f08c379a0000000000000000000000000000000000000000000000000000000008152600401610d2090612fb8565b60405180910390fd5b610d3161128f565b73ffffffffffffffffffffffffffffffffffffffff163373ffffffffffffffffffffffffffffffffffffffff1614610db35780600854610d719190613239565b3414610db2576040517f08c379a0000000000000000000000000000000000000000000000000000000008152600401610da990612e78565b60405180910390fd5b5b6000600190505b818111610e0357610dd88382600954610dd391906131b2565b611bf6565b60096000815480929190610deb906133e0565b91905055508080610dfb906133e0565b915050610dba565b505050565b610e2383838360405180602001604052806000815250611361565b505050565b610e30611784565b73ffffffffffffffffffffffffffffffffffffffff16610e4e61128f565b73ffffffffffffffffffffffffffffffffffffffff1614610ea4576040517f08c379a0000000000000000000000000000000000000000000000000000000008152600401610e9b90613018565b60405180910390fd5b8060079080519060200190610eba929190612449565b5050565b6000806002600084815260200190815260200160002060009054906101000a900473ffffffffffffffffffffffffffffffffffffffff169050600073ffffffffffffffffffffffffffffffffffffffff168173ffffffffffffffffffffffffffffffffffffffff161415610f67576040517f08c379a0000000000000000000000000000000000000000000000000000000008152600401610f5e90612f58565b60405180910390fd5b80915050919050565b60085481565b60078054610f839061337d565b80601f0160208091040260200160405190810160405280929190818152602001828054610faf9061337d565b8015610ffc5780601f10610fd157610100808354040283529160200191610ffc565b820191906000526020600020905b815481529060010190602001808311610fdf57829003601f168201915b505050505081565b60008073ffffffffffffffffffffffffffffffffffffffff168273ffffffffffffffffffffffffffffffffffffffff161415611075576040517f08c379a000000000000000000000000000000000000000000000000000000000815260040161106c90612f38565b60405180910390fd5b600360008373ffffffffffffffffffffffffffffffffffffffff1673ffffffffffffffffffffffffffffffffffffffff168152602001908152602001600020549050919050565b6110c4611784565b73ffffffffffffffffffffffffffffffffffffffff166110e261128f565b73ffffffffffffffffffffffffffffffffffffffff1614611138576040517f08c379a000000000000000000000000000000000000000000000000000000000815260040161112f90613018565b60405180910390fd5b6111426000611c14565b565b61114c611784565b73ffffffffffffffffffffffffffffffffffffffff1661116a61128f565b73ffffffffffffffffffffffffffffffffffffffff16146111c0576040517f08c379a00000000000000000000000000000000000000000000000000000000081526004016111b790613018565b60405180910390fd5b80600b8190555050565b6111d2611784565b73ffffffffffffffffffffffffffffffffffffffff166111f061128f565b73ffffffffffffffffffffffffffffffffffffffff1614611246576040517f08c379a000000000000000000000000000000000000000000000000000000000815260040161123d90613018565b60405180910390fd5b3373ffffffffffffffffffffffffffffffffffffffff166108fc479081150290604051600060405180830381858888f1935050505015801561128c573d6000803e3d6000fd5b50565b6000600660009054906101000a900473ffffffffffffffffffffffffffffffffffffffff16905090565b6060600180546112c89061337d565b80601f01602080910402602001604051908101604052809291908181526020018280546112f49061337d565b80156113415780601f1061131657610100808354040283529160200191611341565b820191906000526020600020905b81548152906001019060200180831161132457829003601f168201915b5050505050905090565b61135d611356611784565b8383611cda565b5050565b61137261136c611784565b836118b1565b6113b1576040517f08c379a00000000000000000000000000000000000000000000000000000000081526004016113a890613058565b60405180910390fd5b6113bd84848484611e47565b50505050565b60006113cd611784565b73ffffffffffffffffffffffffffffffffffffffff166113eb61128f565b73ffffffffffffffffffffffffffffffffffffffff1614611441576040517f08c379a000000000000000000000000000000000000000000000000000000000815260040161143890613018565b60405180910390fd5b47905090565b60606114528261178c565b611491576040517f08c379a000000000000000000000000000000000000000000000000000000000815260040161148890613078565b60405180910390fd5b6000600780546114a09061337d565b9050116114bc57604051806020016040528060008152506114e8565b60076114c783611ea3565b6040516020016114d8929190612d25565b6040516020818303038152906040525b9050919050565b600a5481565b6000600560008473ffffffffffffffffffffffffffffffffffffffff1673ffffffffffffffffffffffffffffffffffffffff16815260200190815260200160002060008373ffffffffffffffffffffffffffffffffffffffff1673ffffffffffffffffffffffffffffffffffffffff16815260200190815260200160002060009054906101000a900460ff16905092915050565b611591611784565b73ffffffffffffffffffffffffffffffffffffffff166115af61128f565b73ffffffffffffffffffffffffffffffffffffffff1614611605576040517f08c379a00000000000000000000000000000000000000000000000000000000081526004016115fc90613018565b60405180910390fd5b600073ffffffffffffffffffffffffffffffffffffffff168173ffffffffffffffffffffffffffffffffffffffff161415611675576040517f08c379a000000000000000000000000000000000000000000000000000000000815260040161166c90612e18565b60405180910390fd5b61167e81611c14565b50565b600c60009054906101000a900460ff1681565b61169c611784565b73ffffffffffffffffffffffffffffffffffffffff166116ba61128f565b73ffffffffffffffffffffffffffffffffffffffff1614611710576040517f08c379a000000000000000000000000000000000000000000000000000000000815260040161170790613018565b60405180910390fd5b8060088190555050565b60007f01ffc9a7000000000000000000000000000000000000000000000000000000007bffffffffffffffffffffffffffffffffffffffffffffffffffffffff1916827bffffffffffffffffffffffffffffffffffffffffffffffffffffffff1916149050919050565b600033905090565b60008073ffffffffffffffffffffffffffffffffffffffff166002600084815260200190815260200160002060009054906101000a900473ffffffffffffffffffffffffffffffffffffffff1673ffffffffffffffffffffffffffffffffffffffff1614159050919050565b816004600083815260200190815260200160002060006101000a81548173ffffffffffffffffffffffffffffffffffffffff021916908373ffffffffffffffffffffffffffffffffffffffff160217905550808273ffffffffffffffffffffffffffffffffffffffff1661186b83610ebe565b73ffffffffffffffffffffffffffffffffffffffff167f8c5be1e5ebec7d5bd14f71427d1e84f3dd0314c0f7b2291e5b200ac8c7c3b92560405160405180910390a45050565b60006118bc8261178c565b6118fb576040517f08c379a00000000000000000000000000000000000000000000000000000000081526004016118f290612ef8565b60405180910390fd5b600061190683610ebe565b90508073ffffffffffffffffffffffffffffffffffffffff168473ffffffffffffffffffffffffffffffffffffffff16148061197557508373ffffffffffffffffffffffffffffffffffffffff1661195d8461095e565b73ffffffffffffffffffffffffffffffffffffffff16145b80611986575061198581856114f5565b5b91505092915050565b8273ffffffffffffffffffffffffffffffffffffffff166119af82610ebe565b73ffffffffffffffffffffffffffffffffffffffff1614611a05576040517f08c379a00000000000000000000000000000000000000000000000000000000081526004016119fc90612e38565b60405180910390fd5b600073ffffffffffffffffffffffffffffffffffffffff168273ffffffffffffffffffffffffffffffffffffffff161415611a75576040517f08c379a0000000000000000000000000000000000000000000000000000000008152600401611a6c90612e98565b60405180910390fd5b611a80838383612050565b611a8b6000826117f8565b6001600360008573ffffffffffffffffffffffffffffffffffffffff1673ffffffffffffffffffffffffffffffffffffffff1681526020019081526020016000206000828254611adb9190613293565b925050819055506001600360008473ffffffffffffffffffffffffffffffffffffffff1673ffffffffffffffffffffffffffffffffffffffff1681526020019081526020016000206000828254611b3291906131b2565b92505081905550816002600083815260200190815260200160002060006101000a81548173ffffffffffffffffffffffffffffffffffffffff021916908373ffffffffffffffffffffffffffffffffffffffff160217905550808273ffffffffffffffffffffffffffffffffffffffff168473ffffffffffffffffffffffffffffffffffffffff167fddf252ad1be2c89b69c2b068fc378daa952ba7f163c4a11628f55a4df523b3ef60405160405180910390a4611bf1838383612055565b505050565b611c1082826040518060200160405280600081525061205a565b5050565b6000600660009054906101000a900473ffffffffffffffffffffffffffffffffffffffff16905081600660006101000a81548173ffffffffffffffffffffffffffffffffffffffff021916908373ffffffffffffffffffffffffffffffffffffffff1602179055508173ffffffffffffffffffffffffffffffffffffffff168173ffffffffffffffffffffffffffffffffffffffff167f8be0079c531659141344cd1fd0a4f28419497f9722a3daafe3b4186f6b6457e060405160405180910390a35050565b8173ffffffffffffffffffffffffffffffffffffffff168373ffffffffffffffffffffffffffffffffffffffff161415611d49576040517f08c379a0000000000000000000000000000000000000000000000000000000008152600401611d4090612eb8565b60405180910390fd5b80600560008573ffffffffffffffffffffffffffffffffffffffff1673ffffffffffffffffffffffffffffffffffffffff16815260200190815260200160002060008473ffffffffffffffffffffffffffffffffffffffff1673ffffffffffffffffffffffffffffffffffffffff16815260200190815260200160002060006101000a81548160ff0219169083151502179055508173ffffffffffffffffffffffffffffffffffffffff168373ffffffffffffffffffffffffffffffffffffffff167f17307eab39ab6107e8899845ad3d59bd9653f200f220920489ca2b5937696c3183604051611e3a9190612dbb565b60405180910390a3505050565b611e5284848461198f565b611e5e848484846120b5565b611e9d576040517f08c379a0000000000000000000000000000000000000000000000000000000008152600401611e9490612df8565b60405180910390fd5b50505050565b60606000821415611eeb576040518060400160405280600181526020017f3000000000000000000000000000000000000000000000000000000000000000815250905061204b565b600082905060005b60008214611f1d578080611f06906133e0565b915050600a82611f169190613208565b9150611ef3565b60008167ffffffffffffffff811115611f5f577f4e487b7100000000000000000000000000000000000000000000000000000000600052604160045260246000fd5b6040519080825280601f01601f191660200182016040528015611f915781602001600182028036833780820191505090505b5090505b6000851461204457600182611faa9190613293565b9150600a85611fb99190613429565b6030611fc591906131b2565b60f81b818381518110612001577f4e487b7100000000000000000000000000000000000000000000000000000000600052603260045260246000fd5b60200101907effffffffffffffffffffffffffffffffffffffffffffffffffffffffffffff1916908160001a905350600a8561203d9190613208565b9450611f95565b8093505050505b919050565b505050565b505050565b612064838361224c565b61207160008484846120b5565b6120b0576040517f08c379a00000000000000000000000000000000000000000000000000000000081526004016120a790612df8565b60405180910390fd5b505050565b60006120d68473ffffffffffffffffffffffffffffffffffffffff16612426565b1561223f578373ffffffffffffffffffffffffffffffffffffffff1663150b7a026120ff611784565b8786866040518563ffffffff1660e01b81526004016121219493929190612d6f565b602060405180830381600087803b15801561213b57600080fd5b505af192505050801561216c57506040513d601f19601f82011682018060405250810190612169919061281e565b60015b6121ef573d806000811461219c576040519150601f19603f3d011682016040523d82523d6000602084013e6121a1565b606091505b506000815114156121e7576040517f08c379a00000000000000000000000000000000000000000000000000000000081526004016121de90612df8565b60405180910390fd5b805181602001fd5b63150b7a0260e01b7bffffffffffffffffffffffffffffffffffffffffffffffffffffffff1916817bffffffffffffffffffffffffffffffffffffffffffffffffffffffff191614915050612244565b600190505b949350505050565b600073ffffffffffffffffffffffffffffffffffffffff168273ffffffffffffffffffffffffffffffffffffffff1614156122bc576040517f08c379a00000000000000000000000000000000000000000000000000000000081526004016122b390612fd8565b60405180910390fd5b6122c58161178c565b15612305576040517f08c379a00000000000000000000000000000000000000000000000000000000081526004016122fc90612e58565b60405180910390fd5b61231160008383612050565b6001600360008473ffffffffffffffffffffffffffffffffffffffff1673ffffffffffffffffffffffffffffffffffffffff168152602001908152602001600020600082825461236191906131b2565b92505081905550816002600083815260200190815260200160002060006101000a81548173ffffffffffffffffffffffffffffffffffffffff021916908373ffffffffffffffffffffffffffffffffffffffff160217905550808273ffffffffffffffffffffffffffffffffffffffff16600073ffffffffffffffffffffffffffffffffffffffff167fddf252ad1be2c89b69c2b068fc378daa952ba7f163c4a11628f55a4df523b3ef60405160405180910390a461242260008383612055565b5050565b6000808273ffffffffffffffffffffffffffffffffffffffff163b119050919050565b8280546124559061337d565b90600052602060002090601f01602090048101928261247757600085556124be565b82601f1061249057805160ff19168380011785556124be565b828001600101855582156124be579182015b828111156124bd5782518255916020019190600101906124a2565b5b5090506124cb91906124cf565b5090565b5b808211156124e85760008160009055506001016124d0565b5090565b60006124ff6124fa846130f8565b6130d3565b90508281526020810184848401111561251757600080fd5b61252284828561333b565b509392505050565b600061253d61253884613129565b6130d3565b90508281526020810184848401111561255557600080fd5b61256084828561333b565b509392505050565b60008135905061257781613aea565b92915050565b60008135905061258c81613b01565b92915050565b6000813590506125a181613b18565b92915050565b6000815190506125b681613b18565b92915050565b600082601f8301126125cd57600080fd5b81356125dd8482602086016124ec565b91505092915050565b600082601f8301126125f757600080fd5b813561260784826020860161252a565b91505092915050565b60008135905061261f81613b2f565b92915050565b60006020828403121561263757600080fd5b600061264584828501612568565b91505092915050565b6000806040838503121561266157600080fd5b600061266f85828601612568565b925050602061268085828601612568565b9150509250929050565b60008060006060848603121561269f57600080fd5b60006126ad86828701612568565b93505060206126be86828701612568565b92505060406126cf86828701612610565b9150509250925092565b600080600080608085870312156126ef57600080fd5b60006126fd87828801612568565b945050602061270e87828801612568565b935050604061271f87828801612610565b925050606085013567ffffffffffffffff81111561273c57600080fd5b612748878288016125bc565b91505092959194509250565b6000806040838503121561276757600080fd5b600061277585828601612568565b92505060206127868582860161257d565b9150509250929050565b600080604083850312156127a357600080fd5b60006127b185828601612568565b92505060206127c285828601612610565b9150509250929050565b6000602082840312156127de57600080fd5b60006127ec8482850161257d565b91505092915050565b60006020828403121561280757600080fd5b600061281584828501612592565b91505092915050565b60006020828403121561283057600080fd5b600061283e848285016125a7565b91505092915050565b60006020828403121561285957600080fd5b600082013567ffffffffffffffff81111561287357600080fd5b61287f848285016125e6565b91505092915050565b60006020828403121561289a57600080fd5b60006128a884828501612610565b91505092915050565b6128ba816132c7565b82525050565b6128c9816132d9565b82525050565b60006128da8261316f565b6128e48185613185565b93506128f481856020860161334a565b6128fd81613516565b840191505092915050565b60006129138261317a565b61291d8185613196565b935061292d81856020860161334a565b61293681613516565b840191505092915050565b600061294c8261317a565b61295681856131a7565b935061296681856020860161334a565b80840191505092915050565b6000815461297f8161337d565b61298981866131a7565b945060018216600081146129a457600181146129b5576129e8565b60ff198316865281860193506129e8565b6129be8561315a565b60005b838110156129e0578154818901526001820191506020810190506129c1565b838801955050505b50505092915050565b60006129fe603283613196565b9150612a0982613527565b604082019050919050565b6000612a21602683613196565b9150612a2c82613576565b604082019050919050565b6000612a44602583613196565b9150612a4f826135c5565b604082019050919050565b6000612a67601c83613196565b9150612a7282613614565b602082019050919050565b6000612a8a601883613196565b9150612a958261363d565b602082019050919050565b6000612aad602483613196565b9150612ab882613666565b604082019050919050565b6000612ad0601983613196565b9150612adb826136b5565b602082019050919050565b6000612af3601a83613196565b9150612afe826136de565b602082019050919050565b6000612b16602c83613196565b9150612b2182613707565b604082019050919050565b6000612b39603883613196565b9150612b4482613756565b604082019050919050565b6000612b5c602a83613196565b9150612b67826137a5565b604082019050919050565b6000612b7f602983613196565b9150612b8a826137f4565b604082019050919050565b6000612ba2601583613196565b9150612bad82613843565b602082019050919050565b6000612bc5602283613196565b9150612bd08261386c565b604082019050919050565b6000612be8601283613196565b9150612bf3826138bb565b602082019050919050565b6000612c0b602083613196565b9150612c16826138e4565b602082019050919050565b6000612c2e602c83613196565b9150612c398261390d565b604082019050919050565b6000612c516005836131a7565b9150612c5c8261395c565b600582019050919050565b6000612c74602083613196565b9150612c7f82613985565b602082019050919050565b6000612c97602183613196565b9150612ca2826139ae565b604082019050919050565b6000612cba603183613196565b9150612cc5826139fd565b604082019050919050565b6000612cdd602683613196565b9150612ce882613a4c565b604082019050919050565b6000612d00602c83613196565b9150612d0b82613a9b565b604082019050919050565b612d1f81613331565b82525050565b6000612d318285612972565b9150612d3d8284612941565b9150612d4882612c44565b91508190509392505050565b6000602082019050612d6960008301846128b1565b92915050565b6000608082019050612d8460008301876128b1565b612d9160208301866128b1565b612d9e6040830185612d16565b8181036060830152612db081846128cf565b905095945050505050565b6000602082019050612dd060008301846128c0565b92915050565b60006020820190508181036000830152612df08184612908565b905092915050565b60006020820190508181036000830152612e11816129f1565b9050919050565b60006020820190508181036000830152612e3181612a14565b9050919050565b60006020820190508181036000830152612e5181612a37565b9050919050565b60006020820190508181036000830152612e7181612a5a565b9050919050565b60006020820190508181036000830152612e9181612a7d565b9050919050565b60006020820190508181036000830152612eb181612aa0565b9050919050565b60006020820190508181036000830152612ed181612ac3565b9050919050565b60006020820190508181036000830152612ef181612ae6565b9050919050565b60006020820190508181036000830152612f1181612b09565b9050919050565b60006020820190508181036000830152612f3181612b2c565b9050919050565b60006020820190508181036000830152612f5181612b4f565b9050919050565b60006020820190508181036000830152612f7181612b72565b9050919050565b60006020820190508181036000830152612f9181612b95565b9050919050565b60006020820190508181036000830152612fb181612bb8565b9050919050565b60006020820190508181036000830152612fd181612bdb565b9050919050565b60006020820190508181036000830152612ff181612bfe565b9050919050565b6000602082019050818103600083015261301181612c21565b9050919050565b6000602082019050818103600083015261303181612c67565b9050919050565b6000602082019050818103600083015261305181612c8a565b9050919050565b6000602082019050818103600083015261307181612cad565b9050919050565b6000602082019050818103600083015261309181612cd0565b9050919050565b600060208201905081810360008301526130b181612cf3565b9050919050565b60006020820190506130cd6000830184612d16565b92915050565b60006130dd6130ee565b90506130e982826133af565b919050565b6000604051905090565b600067ffffffffffffffff821115613113576131126134e7565b5b61311c82613516565b9050602081019050919050565b600067ffffffffffffffff821115613144576131436134e7565b5b61314d82613516565b9050602081019050919050565b60008190508160005260206000209050919050565b600081519050919050565b600081519050919050565b600082825260208201905092915050565b600082825260208201905092915050565b600081905092915050565b60006131bd82613331565b91506131c883613331565b9250827fffffffffffffffffffffffffffffffffffffffffffffffffffffffffffffffff038211156131fd576131fc61345a565b5b828201905092915050565b600061321382613331565b915061321e83613331565b92508261322e5761322d613489565b5b828204905092915050565b600061324482613331565b915061324f83613331565b9250817fffffffffffffffffffffffffffffffffffffffffffffffffffffffffffffffff04831182151516156132885761328761345a565b5b828202905092915050565b600061329e82613331565b91506132a983613331565b9250828210156132bc576132bb61345a565b5b828203905092915050565b60006132d282613311565b9050919050565b60008115159050919050565b60007fffffffff0000000000000000000000000000000000000000000000000000000082169050919050565b600073ffffffffffffffffffffffffffffffffffffffff82169050919050565b6000819050919050565b82818337600083830152505050565b60005b8381101561336857808201518184015260208101905061334d565b83811115613377576000848401525b50505050565b6000600282049050600182168061339557607f821691505b602082108114156133a9576133a86134b8565b5b50919050565b6133b882613516565b810181811067ffffffffffffffff821117156133d7576133d66134e7565b5b80604052505050565b60006133eb82613331565b91507fffffffffffffffffffffffffffffffffffffffffffffffffffffffffffffffff82141561341e5761341d61345a565b5b600182019050919050565b600061343482613331565b915061343f83613331565b92508261344f5761344e613489565b5b828206905092915050565b7f4e487b7100000000000000000000000000000000000000000000000000000000600052601160045260246000fd5b7f4e487b7100000000000000000000000000000000000000000000000000000000600052601260045260246000fd5b7f4e487b7100000000000000000000000000000000000000000000000000000000600052602260045260246000fd5b7f4e487b7100000000000000000000000000000000000000000000000000000000600052604160045260246000fd5b6000601f19601f8301169050919050565b7f4552433732313a207472616e7366657220746f206e6f6e20455243373231526560008201527f63656976657220696d706c656d656e7465720000000000000000000000000000602082015250565b7f4f776e61626c653a206e6577206f776e657220697320746865207a65726f206160008201527f6464726573730000000000000000000000000000000000000000000000000000602082015250565b7f4552433732313a207472616e736665722066726f6d20696e636f72726563742060008201527f6f776e6572000000000000000000000000000000000000000000000000000000602082015250565b7f4552433732313a20746f6b656e20616c7265616479206d696e74656400000000600082015250565b7f4e6f7420656e6f75676820657468657220746f206d696e740000000000000000600082015250565b7f4552433732313a207472616e7366657220746f20746865207a65726f2061646460008201527f7265737300000000000000000000000000000000000000000000000000000000602082015250565b7f4552433732313a20617070726f766520746f2063616c6c657200000000000000600082015250565b7f5075626c6963206d696e74696e67206e6f7420656e61626c6564000000000000600082015250565b7f4552433732313a206f70657261746f7220717565727920666f72206e6f6e657860008201527f697374656e7420746f6b656e0000000000000000000000000000000000000000602082015250565b7f4552433732313a20617070726f76652063616c6c6572206973206e6f74206f7760008201527f6e6572206e6f7220617070726f76656420666f7220616c6c0000000000000000602082015250565b7f4552433732313a2062616c616e636520717565727920666f7220746865207a6560008201527f726f206164647265737300000000000000000000000000000000000000000000602082015250565b7f4552433732313a206f776e657220717565727920666f72206e6f6e657869737460008201527f656e7420746f6b656e0000000000000000000000000000000000000000000000602082015250565b7f496e73756666696369656e742062616c616e63652e0000000000000000000000600082015250565b7f6d696e7420616d6f756e74206d7573742062652067726561746572207468616e60008201527f2030000000000000000000000000000000000000000000000000000000000000602082015250565b7f6d617820737570706c7920726561636865640000000000000000000000000000600082015250565b7f4552433732313a206d696e7420746f20746865207a65726f2061646472657373600082015250565b7f4552433732313a20617070726f76656420717565727920666f72206e6f6e657860008201527f697374656e7420746f6b656e0000000000000000000000000000000000000000602082015250565b7f2e6a736f6e000000000000000000000000000000000000000000000000000000600082015250565b7f4f776e61626c653a2063616c6c6572206973206e6f7420746865206f776e6572600082015250565b7f4552433732313a20617070726f76616c20746f2063757272656e74206f776e6560008201527f7200000000000000000000000000000000000000000000000000000000000000602082015250565b7f4552433732313a207472616e736665722063616c6c6572206973206e6f74206f60008201527f776e6572206e6f7220617070726f766564000000000000000000000000000000602082015250565b7f6d616b696e672055524920717565727920666f72206e6f6e6578697374656e7460008201527f20746f6b656e0000000000000000000000000000000000000000000000000000602082015250565b7f4d696e7420616d6f756e7420657863656564732063757272656e74206176616960008201527f6c61626c6520737570706c790000000000000000000000000000000000000000602082015250565b613af3816132c7565b8114613afe57600080fd5b50565b613b0a816132d9565b8114613b1557600080fd5b50565b613b21816132e5565b8114613b2c57600080fd5b50565b613b3881613331565b8114613b4357600080fd5b5056fea26469706673582212208ec9a5884191cb4761aacc311bb421b4b0a551f29939289b0a05c6aa2961543864736f6c63430008040033",
  "linkReferences": {},
  "deployedLinkReferences": {}
}